:02000300090CE6
:020005000514E0
:0200070009F0FE
:0200090007EE00
:0709F00078D67428F280FEA6
:0C07EE00E4FBFA7D027F0212034380F45A
:10051400E4FBFA7D037F02120343E4FF12086B78C5
:10052400DAEFF27F0112086B78DBEFF27F02120838
:100534006B78DCEFF27F0312086B78DAE2FED39477
:100544003F406A08E2FDD3943F4062EED39D400CE5
:1005540018E29D78DDF2E478E0F2801078DAE2FEC9
:1005640008E2C39E78DDF278E07401F278DDE2FE01
:10057400D394035004E4F28066EED39407500778D2
:10058400DD7401F28059EED3940F500778DD7402C4
:10059400F2804CEED3947F500778DD7403F2803FF1
:1005A400EEC39480403978DD7404F2803278DAE264
:1005B400FEC313FD08E2FCC3132D78DDF2EED39CD9
:1005C4004006E478E0F2800578E07401F278DDE238
:1005D400C3944040057405F2800578DD7406F27812
:1005E400DCE2FEEFD39E4004AF06800078DEEFF23B
:1005F400D3940B5005E408F2802778DEE2FFD3940D
:10060400305006087425F28018EFC39440400778F0
:10061400DF7440F2800BEFC39450400578DF7455CB
:10062400F278DFE2FFC374659F18F278E0E278DDC8
:100634006008E2FFC374269F8003E22426FF1206AB
:10064400E778DEE2FF12098078DEE2FF1209B8786B
:07065400DEE2F4F5A0A114A1
:0D07E1007843EBF208EAF208E9F2B2A72231
:10090C00E4F592F591F596F595F5B2F5B112075E11
:10091C001207CD7F011202A7E4FBFA7D017F0112C1
:10092C0003437BFE7A007949C002784608E2FA0854
:0C093C00E2F5828A83D0021202A580DC62
:0309F70081CD00AF
:03002B000208BC0C
:1008BC00C0E0C0F0C083C08263A201C083C082C00C
:1008CC00D075D000C000C001C002C003C004C00578
:1008DC00C006C00775BC0078CCE2FF120333D0070A
:1008EC00D006D005D004D003D002D001D000D0D097
:1008FC00D082D08363A201D082D083D0F0D0E032FA
:1007CD00E4F5BD75BCC0FBFA7D027F02120343C286
:0407DD00BDD2AD22BA
:10086B0078E1EFF278CDE270FB78CD7401F21203F0
:10087B003078CCEFF2E4F5BD78E1E2FFB40908E49F
:10088B00F59D75BC8880127401A807088002C333DC
:10089B00D8FCF59DEF4488F5BCE4FBFA7D027F01A3
:1008AB0012034378E1E5BDF2E478CDF278E1E2FFA3
:0108BB00221A
:0607FA007F0912086B22CA
:10075E0043BA8090FFF07447F0A374FFF07F03124A
:10076E00000E90FF10E4F0A374FFF07F0412000E51
:10077E0090FF20E4F0A374FFF07F0512000E90FFAF
:10078E0030E4F0A374FFF090FFF2740DF043F580A7
:10079E0053BA7FE4FF1209B8E4FF1209807800749F
:1007AE0029F278E4741FF278E4E2FFD39429500A18
:0F07BE001206E778E4E204F280ED7F240206E7FA
:10000E001F1F7401A807088002C333D8FCFE429656
:0A001E00EE5295EE52F1EE42F5228B
:1009480043BA80AC07E41201DEE4FBFA797F78430E
:100958001201377B007AFE798D784612002E12023A
:1009680012AD07AC06E42DFD74013C90FF12F0AF08
:0709780005EFA3F053BA7F65
:01097F002255
:1009800043BA80AC07E41201DEE4FBFA797F7843D6
:100990001201377B007AFE798D784612002E120202
:1009A00012AD07AC06E42DFD74013C90FF22F0AFC0
:0709B00005EFA3F053BA7F2D
:0109B700221D
:1009B80043BA80AC07E41201DEE4FBFA797F78439E
:1009C8001201377B007AFE798D784612002E1202CA
:1009D80012AD07AC06E42DFD74013C90FF32F0AF78
:0709E80005EFA3F053BA7FF5
:0109EF0022E5
:0406E70078E5EFF2D1
:1006EB007800E2FEC39F503078E5E2C39E78E7F2D4
:1006FB00E418F278E7E2FF18E2C39F504F7800E26C
:10070B0004F2E2FF120948E4FBFA7D0D7F021203AB
:10071B004378E6E204F280DB78E5E2FF7800E2C39F
:10072B009F78E7F2E418F278E7E2FF18E2C39F50F4
:10073B001B7800E214F2E2FF120948E4FBFA7D0D8C
:10074B007F0212034378E6E204F280DB78E5E2787D
:02075B0000F2AA
:01075D002279
:06080000AB07AA06A905E2
:1008060078D4E2FE08E2FFC3EB9F78CFF2EA9E18A7
:10081600F278D5E225E0FF18E233FEC3EB9FFFEA4C
:100826009EFE18E22FFF18E23E78D0F208EFF2E4BF
:10083600FF78D4E2FD08E278D2CDF208EDF2AD03FE
:1008460008EAF208EDF2EF29FFE433FEC364809470
:100856008050037F0022D3EF94FFEE6480948040A3
:04086600037FFF22EB
:01086A00226B
:1002A700EFD3940340037FFF22740F2F2FF8E6202C
:1002B700E5F4C2AFE64430F6D2AFAE0CEEC39F50C2
:1002C700210E74162EF8E6F908E618BE030274FF2D
:1002D700FDED69600909E71919F7090980F3161691
:1002E70080DAEED39F400405810581EED39F40223B
:1002F70074162EF808E6F9EEB50C02A98118060661
:10030700E6FDED6960091919E70909F71980F31E78
:1003170080D9EF2416F8E604F8EF2F049000039332
:09032700F608EF2F93F67F002287
:03033000AF0C22ED
:10033300EF23240FF8C2AFE64490F6D2AF0203F1E5
:100343008FF0E4FFFEE50C23240EF8C2A930F70D6D
:100353007F08E6600B2DF660325030800730F106DF
:10036300EDF660277E020830F010C2AFE610E725F5
:100373000E30E20CD2AF7F048014C2AFE610E71553
:1003830054EC4EF6D2AFD2A902041D7F0808EF4405
:0F03930083F4C2AF56C6D2AFD2A954804FFF2217
:03000B000203A746
:1003A200C2AF80FE321203A685D00B75D008AAE038
:1003B200C28CE58A24F7F58AE58C34D8F58CD28C88
:1003C200EC2417F8E6BC030274FFC39581B4140051
:1003D20040CE7904780E16E608700BC2AFE630E123
:1003E200034418F6D2AF08D9EDEA8BD030000122CF
:1003F200D50DFCC0E0C0D0C0F0C083C082C000C038
:1004020001C002C003C004C005C006C007E50C233A
:10041200240FF87440C2AF46F6D2AFD200E50CFF0B
:1004220023240FF80F0808BF04047F00780FE6307A
:10043200E4F200E50CC39F5020050C7416250CF85D
:10044200E6FDA68108E6AE0CBE030274FFCDF8E815
:100452006D60E008E6C0E080F6E50CD39F4027E53A
:100462000C2417F8E6AE0CBE030274FFFD18E6CDAD
:10047200F8E5816D6006D0E0F61880F5E50C2416EB
:10048200C8F6150C80D3750D05E50C23240FF87FF3
:1004920004C2AFE610E61E30E00310E20C7F00302B
:0504A200E10730E30456
:1004A7007F0854F4547CC6D2AF54804207C200225E
:1004B700F6D2AFD007D006D005D004D003D002D0F3
:1004C70001D000D082D083D0F0D0D0D0E0C20022BB
:1004D7007816A68174036006FF0876FFDFFB7F04AA
:1004E700E4780EF608F608DFFA780F763090000306
:1004F700740193C0E0E493C0E0750D05438901756D
:0D0507008AF0758CD8D28CD2AFD2A9220315
:10002E00EC4D6011E8497017ED33EC3304600DE4CC
:10003E00FCFFFEFD22E933E8330470F802027E1263
:10004E00024958046009E4CC248150062850090264
:10005E000288284003020285C0E0EB4A7044B98052
:10006E0006D0E0FB020274EF4E701CBD8008EBFF61
:10007E00EAFEE9FD80EBE98DF0A4FEE5F002011742
:10008E00E9CDF9EAFEEBFFEF89F0A4FCE5F0CE89AD
:10009E00F0A42EFFE435F0CD89F0A42DFEE435F06A
:1000AE008067EF4E7005BD80D780C3EF8BF0A4AC98
:1000BE00F0EE8BF0A42CFCE435F0F8EF8AF0A42CD3
:1000CE00E5F038FCE433CB8DF0A42CFCE5F03BF8E6
:1000DE00EE8AF0A42CFCE5F038F8E433CF89F0A4D6
:1000EE002CFCE5F038CF3400CE89F0A42FFFE5F0DC
:1000FE003EFEE433C98DF0A42EFEE5F039CD8AF034
:10010E00A42FFFE5F03EFEE43DFD33D0E0FB5007AB
:10011E000BBB000F020288EC2CFCEF33FFEE33FE1C
:06012E00ED33FD0202604A
:10013400020288EC5D046005E85904700302027E43
:10014400120249580460F6EC4860F2EC7004FDFEBB
:10015400FF22C860DB2481C85009C398600250069E
:100164000202859850CAF582E9294B4A7005AB8290
:1001740002027475F0007C1A7880C3EF9BEE9AED4E
:1001840099400DC3EF9BFFEE9AFEED99FDE842F016
:10019400DC23ACF0D0E0FFD0E0FED0E0FDAB822069
:1001A400E7101BEB60BAEC2CFCEF33FFEE33FEEDF3
:1001B40033FD020260E803F830E705C0F075F00093
:1001C400EF2FFFEE33FEED33FD40B830E7C280AAD7
:1001D40075F020800E75F010800575F0087D007EA6
:1001E400007F003392D530D503120293EC334010D4
:1001F400EF33FFEE33FEED33FDEC33FCD5F0ED22AF
:0E020400E5F0247EA2D513CC92E7CDCEFF22EA
:10021200EDD2E7CD33EC3392D524814006E4FFFEE4
:10022200FDFC22FCE4CFCECDCC24E0501174FF8043
:10023200EDC3CC13CCCD13CDCE13CECF13CF0470E0
:07024200F030D5DE0202934B
:10024900E9D2E7C933E833F892D5EDD2E7CD33ECFB
:0702590033FC5002B2D52274
:10026000EC30E7100FBF000C0EBE00080DBD0004FF
:100270000BEB6014A2D5EB13FCED92E7FD2274FFAB
:10028000FCFDFEFF22E480F8A2D574FF13FC7D8004
:03029000E480EF18
:0300000002065B9A
:0C065B00787FE4F6D8FD7581200206A22D
:0E029300C3E49FFFE49EFEE49DFDE49CFC227C
:0602A1008A838982E473E8
:100667000204D7E493A3F8E493A34003F68001F2CE
:1006770008DFF48029E493A3F85407240CC8C33394
:10068700C4540F4420C8834004F456800146F6DF63
:10069700E4800B01020408102040809009F7E47EF3
:1006A700019360BCA3FF543F30E509541FFEE49358
:1006B700A360010ECF54C025E060A840B8E493A31F
:1006C700FAE493A3F8E493A3C8C582C8CAC583CA4A
:1006D700F0A3C8C582C8CAC583CADFE9DEE780BE02
:0109FA0000FC
:00000001FF
